{
  "contractName": "Final",
  "abi": [
    {
      "constant": true,
      "inputs": [
        {
          "internalType": "uint256",
          "name": "",
          "type": "uint256"
        }
      ],
      "name": "patients",
      "outputs": [
        {
          "internalType": "uint256",
          "name": "id",
          "type": "uint256"
        },
        {
          "internalType": "string",
          "name": "name",
          "type": "string"
        },
        {
          "internalType": "uint256",
          "name": "MRN",
          "type": "uint256"
        },
        {
          "internalType": "uint256",
          "name": "Birthday",
          "type": "uint256"
        },
        {
          "internalType": "string",
          "name": "Sex",
          "type": "string"
        },
        {
          "internalType": "uint256",
          "name": "Phone",
          "type": "uint256"
        },
        {
          "internalType": "string",
          "name": "Division",
          "type": "string"
        },
        {
          "internalType": "string",
          "name": "Country",
          "type": "string"
        }
      ],
      "payable": false,
      "stateMutability": "view",
      "type": "function"
    },
    {
      "constant": true,
      "inputs": [],
      "name": "patientsCount",
      "outputs": [
        {
          "internalType": "uint256",
          "name": "",
          "type": "uint256"
        }
      ],
      "payable": false,
      "stateMutability": "view",
      "type": "function"
    },
    {
      "constant": false,
      "inputs": [
        {
          "internalType": "string",
          "name": "_name",
          "type": "string"
        },
        {
          "internalType": "uint256",
          "name": "_MRN",
          "type": "uint256"
        },
        {
          "internalType": "uint256",
          "name": "_Birthday",
          "type": "uint256"
        },
        {
          "internalType": "string",
          "name": "_Sex",
          "type": "string"
        },
        {
          "internalType": "uint256",
          "name": "_Phone",
          "type": "uint256"
        },
        {
          "internalType": "string",
          "name": "_Division",
          "type": "string"
        },
        {
          "internalType": "string",
          "name": "_Country",
          "type": "string"
        }
      ],
      "name": "Wound",
      "outputs": [],
      "payable": false,
      "stateMutability": "nonpayable",
      "type": "function"
    }
  ],
  "bytecode": "0x608060405234801561001057600080fd5b506109b3806100206000396000f3fe608060405234801561001057600080fd5b50600436106100415760003560e01c806393119a8314610046578063b6b1289d1461024d578063b7de51821461026b575b600080fd5b6100726004803603602081101561005c57600080fd5b8101908080359060200190929190505050610509565b604051808981526020018060200188815260200187815260200180602001868152602001806020018060200185810385528c818151815260200191508051906020019080838360005b838110156100d65780820151818401526020810190506100bb565b50505050905090810190601f1680156101035780820380516001836020036101000a031916815260200191505b50858103845289818151815260200191508051906020019080838360005b8381101561013c578082015181840152602081019050610121565b50505050905090810190601f1680156101695780820380516001836020036101000a031916815260200191505b50858103835287818151815260200191508051906020019080838360005b838110156101a2578082015181840152602081019050610187565b50505050905090810190601f1680156101cf5780820380516001836020036101000a031916815260200191505b50858103825286818151815260200191508051906020019080838360005b838110156102085780820151818401526020810190506101ed565b50505050905090810190601f1680156102355780820380516001836020036101000a031916815260200191505b509c5050505050505050505050505060405180910390f35b6102556107b1565b6040518082815260200191505060405180910390f35b610507600480360360e081101561028157600080fd5b810190808035906020019064010000000081111561029e57600080fd5b8201836020820111156102b057600080fd5b803590602001918460018302840111640100000000831117156102d257600080fd5b91908080601f016020809104026020016040519081016040528093929190818152602001838380828437600081840152601f19601f82011690508083019250505050505050919291929080359060200190929190803590602001909291908035906020019064010000000081111561034957600080fd5b82018360208201111561035b57600080fd5b8035906020019184600183028401116401000000008311171561037d57600080fd5b91908080601f016020809104026020016040519081016040528093929190818152602001838380828437600081840152601f19601f82011690508083019250505050505050919291929080359060200190929190803590602001906401000000008111156103ea57600080fd5b8201836020820111156103fc57600080fd5b8035906020019184600183028401116401000000008311171561041e57600080fd5b91908080601f016020809104026020016040519081016040528093929190818152602001838380828437600081840152601f19601f8201169050808301925050505050505091929192908035906020019064010000000081111561048157600080fd5b82018360208201111561049357600080fd5b803590602001918460018302840111640100000000831117156104b557600080fd5b91908080601f016020809104026020016040519081016040528093929190818152602001838380828437600081840152601f19601f8201169050808301925050505050505091929192905050506107b7565b005b6000602052806000526040600020600091509050806000015490806001018054600181600116156101000203166002900480601f0160208091040260200160405190810160405280929190818152602001828054600181600116156101000203166002900480156105bb5780601f10610590576101008083540402835291602001916105bb565b820191906000526020600020905b81548152906001019060200180831161059e57829003601f168201915b505050505090806002015490806003015490806004018054600181600116156101000203166002900480601f0160208091040260200160405190810160405280929190818152602001828054600181600116156101000203166002900480156106655780601f1061063a57610100808354040283529160200191610665565b820191906000526020600020905b81548152906001019060200180831161064857829003601f168201915b505050505090806005015490806006018054600181600116156101000203166002900480601f0160208091040260200160405190810160405280929190818152602001828054600181600116156101000203166002900480156107095780601f106106de57610100808354040283529160200191610709565b820191906000526020600020905b8154815290600101906020018083116106ec57829003601f168201915b505050505090806007018054600181600116156101000203166002900480601f0160208091040260200160405190810160405280929190818152602001828054600181600116156101000203166002900480156107a75780601f1061077c576101008083540402835291602001916107a7565b820191906000526020600020905b81548152906001019060200180831161078a57829003601f168201915b5050505050905088565b60015481565b6107c6878787878787876107cf565b50505050505050565b60016000815480929190600101919050555060405180610100016040528060015481526020018881526020018781526020018681526020018581526020018481526020018381526020018281525060008060015481526020019081526020016000206000820151816000015560208201518160010190805190602001906108579291906108d9565b50604082015181600201556060820151816003015560808201518160040190805190602001906108889291906108d9565b5060a0820151816005015560c08201518160060190805190602001906108af9291906108d9565b5060e08201518160070190805190602001906108cc9291906108d9565b5090505050505050505050565b828054600181600116156101000203166002900490600052602060002090601f016020900481019282601f1061091a57805160ff1916838001178555610948565b82800160010185558215610948579182015b8281111561094757825182559160200191906001019061092c565b5b5090506109559190610959565b5090565b61097b91905b8082111561097757600081600090555060010161095f565b5090565b9056fea265627a7a723158202433ed117ccc4f300e9d3f73c329f0c768098723911b680ce7285f4870e364d464736f6c63430005100032",
  "source": "pragma solidity >=0.5.0 <0.6.0;\r\n/**\r\n * The wounds contract does this and that...\r\n */\r\ncontract Final {\r\n\r\n\t//model our patient\r\n\tstruct Patient {\r\n\t\t\tuint id;\r\n\t\t\tstring name;\r\n\t\t\tuint MRN;\r\n\t\t\tuint Birthday;\r\n\t\t\tstring Sex;\r\n\t\t\tuint Phone;\r\n\t\t\tstring Division;\r\n\t\t\tstring Country;\t\r\n\r\n\t}\r\n\r\n\t//store patients\r\n\t//fetch patients\r\n\tmapping(uint => Patient) public patients;\r\n\t//store patient count\r\n\t//patientsCount displays the number of patients in the Patient mapping\r\n\t//which is assigned the variable patients\r\n\tuint public patientsCount;\r\n\r\n\t//@dev calls the addPatient function each time a patient is created\r\n\r\n\tfunction Wound(string memory _name, uint _MRN, uint _Birthday, string memory _Sex, uint _Phone, string memory _Division, string memory _Country) public {\r\n\t\taddPatient(_name, _MRN, _Birthday, _Sex, _Phone, _Division, _Country);\r\n\t\r\n\t}\r\n//add a patient to the mapping\r\n//store multiple candidates\r\n//store track of how many times they have been viewed\r\n//reference candidates  by id\r\n//@dev local variables are prepended with the _ i.e the underscore\r\n//@dev is a private fxn bc we dont want it accescible to every fxn in the contract\r\n//@dev creates new patient\r\nfunction addPatient(string memory _name, uint _MRN, uint _Birthday, string memory _Sex, uint _Phone, string memory _Division, string memory _Country) private {\r\n\tpatientsCount++;\r\n\tpatients[patientsCount] = Patient(patientsCount, _name, _MRN, _Birthday, _Sex, _Phone, _Division, _Country );\r\n\r\n\r\n}\r\n \r\n}\r\n",
  "sourcePath": "C:/Windows/System32/saturday/contracts/Final.sol",
  "compiler": {
    "name": "solc",
    "version": "0.5.16+commit.9c3226ce.Emscripten.clang"
  },
  "schemaVersion": "3.3.3",
  "updatedAt": "2021-02-28T22:17:56.448Z",
  "networkType": "ethereum",
  "devdoc": {
    "methods": {}
  },
  "userdoc": {
    "methods": {},
    "notice": "The wounds contract does this and that..."
  }
}